{
  "contractName": "KingOfTheBlockchain",
  "abi": [
    {
      "inputs": [],
      "stateMutability": "nonpayable",
      "type": "constructor"
    },
    {
      "anonymous": false,
      "inputs": [
        {
          "indexed": false,
          "internalType": "uint256",
          "name": "amount",
          "type": "uint256"
        },
        {
          "indexed": true,
          "internalType": "address",
          "name": "recipient",
          "type": "address"
        }
      ],
      "name": "LogWithdrawal",
      "type": "event"
    },
    {
      "anonymous": false,
      "inputs": [
        {
          "indexed": false,
          "internalType": "address",
          "name": "bidder",
          "type": "address"
        },
        {
          "indexed": false,
          "internalType": "uint256",
          "name": "bid",
          "type": "uint256"
        },
        {
          "indexed": false,
          "internalType": "uint256",
          "name": "timestamp",
          "type": "uint256"
        }
      ],
      "name": "NewBid",
      "type": "event"
    },
    {
      "inputs": [
        {
          "internalType": "uint256",
          "name": "",
          "type": "uint256"
        }
      ],
      "name": "bids",
      "outputs": [
        {
          "internalType": "string",
          "name": "message",
          "type": "string"
        },
        {
          "internalType": "uint256",
          "name": "bid",
          "type": "uint256"
        },
        {
          "internalType": "uint256",
          "name": "timestamp",
          "type": "uint256"
        },
        {
          "internalType": "address",
          "name": "bidder",
          "type": "address"
        },
        {
          "internalType": "string",
          "name": "uri",
          "type": "string"
        }
      ],
      "stateMutability": "view",
      "type": "function",
      "constant": true
    },
    {
      "inputs": [
        {
          "internalType": "address",
          "name": "",
          "type": "address"
        }
      ],
      "name": "bidsIndex",
      "outputs": [
        {
          "internalType": "uint256",
          "name": "",
          "type": "uint256"
        }
      ],
      "stateMutability": "view",
      "type": "function",
      "constant": true
    },
    {
      "inputs": [
        {
          "internalType": "uint256",
          "name": "",
          "type": "uint256"
        }
      ],
      "name": "charities",
      "outputs": [
        {
          "internalType": "address",
          "name": "",
          "type": "address"
        }
      ],
      "stateMutability": "view",
      "type": "function",
      "constant": true
    },
    {
      "inputs": [],
      "name": "maxBid",
      "outputs": [
        {
          "internalType": "uint256",
          "name": "",
          "type": "uint256"
        }
      ],
      "stateMutability": "view",
      "type": "function",
      "constant": true
    },
    {
      "inputs": [
        {
          "internalType": "address",
          "name": "charity",
          "type": "address"
        }
      ],
      "name": "addCharity",
      "outputs": [],
      "stateMutability": "nonpayable",
      "type": "function"
    },
    {
      "inputs": [],
      "name": "getCharities",
      "outputs": [
        {
          "internalType": "address[]",
          "name": "",
          "type": "address[]"
        }
      ],
      "stateMutability": "view",
      "type": "function",
      "constant": true
    },
    {
      "inputs": [
        {
          "internalType": "uint256",
          "name": "page",
          "type": "uint256"
        },
        {
          "internalType": "uint256",
          "name": "length",
          "type": "uint256"
        }
      ],
      "name": "getBids",
      "outputs": [
        {
          "components": [
            {
              "internalType": "string",
              "name": "message",
              "type": "string"
            },
            {
              "internalType": "uint256",
              "name": "bid",
              "type": "uint256"
            },
            {
              "internalType": "uint256",
              "name": "timestamp",
              "type": "uint256"
            },
            {
              "internalType": "address",
              "name": "bidder",
              "type": "address"
            },
            {
              "internalType": "string",
              "name": "uri",
              "type": "string"
            }
          ],
          "internalType": "struct KingOfTheBlockchain.KingMessage[]",
          "name": "",
          "type": "tuple[]"
        }
      ],
      "stateMutability": "view",
      "type": "function",
      "constant": true
    },
    {
      "inputs": [],
      "name": "getTopBids",
      "outputs": [
        {
          "components": [
            {
              "internalType": "string",
              "name": "message",
              "type": "string"
            },
            {
              "internalType": "uint256",
              "name": "bid",
              "type": "uint256"
            },
            {
              "internalType": "uint256",
              "name": "timestamp",
              "type": "uint256"
            },
            {
              "internalType": "address",
              "name": "bidder",
              "type": "address"
            },
            {
              "internalType": "string",
              "name": "uri",
              "type": "string"
            }
          ],
          "internalType": "struct KingOfTheBlockchain.KingMessage[]",
          "name": "",
          "type": "tuple[]"
        }
      ],
      "stateMutability": "view",
      "type": "function",
      "constant": true
    },
    {
      "inputs": [
        {
          "internalType": "string",
          "name": "message",
          "type": "string"
        },
        {
          "internalType": "string",
          "name": "uri",
          "type": "string"
        },
        {
          "internalType": "uint256",
          "name": "charityId",
          "type": "uint256"
        }
      ],
      "name": "makeBid",
      "outputs": [],
      "stateMutability": "payable",
      "type": "function",
      "payable": true
    },
    {
      "inputs": [
        {
          "internalType": "uint256",
          "name": "amount",
          "type": "uint256"
        },
        {
          "internalType": "address payable",
          "name": "recipient",
          "type": "address"
        }
      ],
      "name": "withdraw",
      "outputs": [],
      "stateMutability": "nonpayable",
      "type": "function"
    }
  ],
  "bytecode": "0x608060405260006001556000600255603360065534801561001f57600080fd5b50336000806101000a81548173ffffffffffffffffffffffffffffffffffffffff021916908373ffffffffffffffffffffffffffffffffffffffff1602179055506121f58061006f6000396000f3fe6080604052600436106100905760003560e01c806370c56f731161005957806370c56f731461017157806374b11d8a146101ae57806378b14f0a146101d957806386514e2614610202578063fb709d2e1461023f57610090565b8062f714ce1461009557806330828bbb146100be5780634423c5f1146100da57806348112c6f1461011b57806354f5674114610146575b600080fd5b3480156100a157600080fd5b506100bc60048036038101906100b791906115a8565b61027c565b005b6100d860048036038101906100d3919061172e565b610474565b005b3480156100e657600080fd5b5061010160048036038101906100fc91906117b9565b61078d565b60405161011295949392919061189e565b60405180910390f35b34801561012757600080fd5b50610130610903565b60405161013d91906119bd565b60405180910390f35b34801561015257600080fd5b5061015b610991565b6040516101689190611b77565b60405180910390f35b34801561017d57600080fd5b5061019860048036038101906101939190611bc5565b610fce565b6040516101a59190611bf2565b60405180910390f35b3480156101ba57600080fd5b506101c3610fe6565b6040516101d09190611bf2565b60405180910390f35b3480156101e557600080fd5b5061020060048036038101906101fb9190611bc5565b610fec565b005b34801561020e57600080fd5b5061022960048036038101906102249190611c0d565b6110e0565b6040516102369190611b77565b60405180910390f35b34801561024b57600080fd5b50610266600480360381019061026191906117b9565b6113d9565b6040516102739190611c4d565b60405180910390f35b60008054906101000a900473ffffffffffffffffffffffffffffffffffffffff1673ffffffffffffffffffffffffffffffffffffffff163373ffffffffffffffffffffffffffffffffffffffff161461030a576040517f08c379a000000000000000000000000000000000000000000000000000000000815260040161030190611cda565b60405180910390fd5b60008054906101000a900473ffffffffffffffffffffffffffffffffffffffff1673ffffffffffffffffffffffffffffffffffffffff163373ffffffffffffffffffffffffffffffffffffffff1614610398576040517f08c379a000000000000000000000000000000000000000000000000000000000815260040161038f90611d6c565b60405180910390fd5b814710156103db576040517f08c379a00000000000000000000000000000000000000000000000000000000081526004016103d290611dd8565b60405180910390fd5b8073ffffffffffffffffffffffffffffffffffffffff167fef232fa02b2633bddc860db9d0d9b1c57fd83b506398b134edaebb6783d41e94836040516104219190611bf2565b60405180910390a28073ffffffffffffffffffffffffffffffffffffffff166108fc839081150290604051600060405180830381858888f1935050505015801561046f573d6000803e3d6000fd5b505050565b60015434116104b8576040517f08c379a00000000000000000000000000000000000000000000000000000000081526004016104af90611e44565b60405180910390fd5b60058054905081106104ff576040517f08c379a00000000000000000000000000000000000000000000000000000000081526004016104f690611eb0565b60405180910390fd5b3460018190555060006040518060a001604052808581526020013481526020014281526020013373ffffffffffffffffffffffffffffffffffffffff1681526020018481525090506005828154811061055b5761055a611ed0565b5b9060005260206000200160009054906101000a900473ffffffffffffffffffffffffffffffffffffffff1673ffffffffffffffffffffffffffffffffffffffff166108fc6064600654346105af9190611f2e565b6105b99190611fb7565b9081150290604051600060405180830381858888f193505050501580156105e4573d6000803e3d6000fd5b5060008054906101000a900473ffffffffffffffffffffffffffffffffffffffff1673ffffffffffffffffffffffffffffffffffffffff166108fc606460065460646106309190611fe8565b3461063b9190611f2e565b6106459190611fb7565b9081150290604051600060405180830381858888f19350505050158015610670573d6000803e3d6000fd5b50600481908060018154018082558091505060019003906000526020600020906005020160009091909190915060008201518160000190805190602001906106b9929190611418565b50602082015181600101556040820151816002015560608201518160030160006101000a81548173ffffffffffffffffffffffffffffffffffffffff021916908373ffffffffffffffffffffffffffffffffffffffff1602179055506080820151816004019080519060200190610731929190611418565b505050600260008154809291906107479061201c565b91905055507f87f5b2fe112bf269d30fb8ca9dc0bde0afd0cc39258e13fafd75fe794795bf0e33344260405161077f93929190612065565b60405180910390a150505050565b6004818154811061079d57600080fd5b90600052602060002090600502016000915090508060000180546107c0906120cb565b80601f01602080910402602001604051908101604052809291908181526020018280546107ec906120cb565b80156108395780601f1061080e57610100808354040283529160200191610839565b820191906000526020600020905b81548152906001019060200180831161081c57829003601f168201915b5050505050908060010154908060020154908060030160009054906101000a900473ffffffffffffffffffffffffffffffffffffffff1690806004018054610880906120cb565b80601f01602080910402602001604051908101604052809291908181526020018280546108ac906120cb565b80156108f95780601f106108ce576101008083540402835291602001916108f9565b820191906000526020600020905b8154815290600101906020018083116108dc57829003601f168201915b5050505050905085565b6060600580548060200260200160405190810160405280929190818152602001828054801561098757602002820191906000526020600020905b8160009054906101000a900473ffffffffffffffffffffffffffffffffffffffff1673ffffffffffffffffffffffffffffffffffffffff168152602001906001019080831161093d575b5050505050905090565b6060600060048054905090506000600367ffffffffffffffff8111156109ba576109b9611603565b5b6040519080825280602002602001820160405280156109f357816020015b6109e061149e565b8152602001906001900390816109d85790505b5090506000821115610be6576004600183610a0e9190611fe8565b81548110610a1f57610a1e611ed0565b5b90600052602060002090600502016040518060a0016040529081600082018054610a48906120cb565b80601f0160208091040260200160405190810160405280929190818152602001828054610a74906120cb565b8015610ac15780601f10610a9657610100808354040283529160200191610ac1565b820191906000526020600020905b815481529060010190602001808311610aa457829003601f168201915b5050505050815260200160018201548152602001600282015481526020016003820160009054906101000a900473ffffffffffffffffffffffffffffffffffffffff1673ffffffffffffffffffffffffffffffffffffffff1673ffffffffffffffffffffffffffffffffffffffff168152602001600482018054610b44906120cb565b80601f0160208091040260200160405190810160405280929190818152602001828054610b70906120cb565b8015610bbd5780601f10610b9257610100808354040283529160200191610bbd565b820191906000526020600020905b815481529060010190602001808311610ba057829003601f168201915b50505050508152505081600081518110610bda57610bd9611ed0565b5b60200260200101819052505b6001821115610dd6576004600283610bfe9190611fe8565b81548110610c0f57610c0e611ed0565b5b90600052602060002090600502016040518060a0016040529081600082018054610c38906120cb565b80601f0160208091040260200160405190810160405280929190818152602001828054610c64906120cb565b8015610cb15780601f10610c8657610100808354040283529160200191610cb1565b820191906000526020600020905b815481529060010190602001808311610c9457829003601f168201915b5050505050815260200160018201548152602001600282015481526020016003820160009054906101000a900473ffffffffffffffffffffffffffffffffffffffff1673ffffffffffffffffffffffffffffffffffffffff1673ffffffffffffffffffffffffffffffffffffffff168152602001600482018054610d34906120cb565b80601f0160208091040260200160405190810160405280929190818152602001828054610d60906120cb565b8015610dad5780601f10610d8257610100808354040283529160200191610dad565b820191906000526020600020905b815481529060010190602001808311610d9057829003601f168201915b50505050508152505081600181518110610dca57610dc9611ed0565b5b60200260200101819052505b6002821115610fc6576004600383610dee9190611fe8565b81548110610dff57610dfe611ed0565b5b90600052602060002090600502016040518060a0016040529081600082018054610e28906120cb565b80601f0160208091040260200160405190810160405280929190818152602001828054610e54906120cb565b8015610ea15780601f10610e7657610100808354040283529160200191610ea1565b820191906000526020600020905b815481529060010190602001808311610e8457829003601f168201915b5050505050815260200160018201548152602001600282015481526020016003820160009054906101000a900473ffffffffffffffffffffffffffffffffffffffff1673ffffffffffffffffffffffffffffffffffffffff1673ffffffffffffffffffffffffffffffffffffffff168152602001600482018054610f24906120cb565b80601f0160208091040260200160405190810160405280929190818152602001828054610f50906120cb565b8015610f9d5780601f10610f7257610100808354040283529160200191610f9d565b820191906000526020600020905b815481529060010190602001808311610f8057829003601f168201915b50505050508152505081600281518110610fba57610fb9611ed0565b5b60200260200101819052505b809250505090565b60036020528060005260406000206000915090505481565b60015481565b60008054906101000a900473ffffffffffffffffffffffffffffffffffffffff1673ffffffffffffffffffffffffffffffffffffffff163373ffffffffffffffffffffffffffffffffffffffff161461107a576040517f08c379a000000000000000000000000000000000000000000000000000000000815260040161107190611cda565b60405180910390fd5b6005819080600181540180825580915050600190039060005260206000200160009091909190916101000a81548173ffffffffffffffffffffffffffffffffffffffff021916908373ffffffffffffffffffffffffffffffffffffffff16021790555050565b606082826004805490506110f49190611fb7565b1015611135576040517f08c379a000000000000000000000000000000000000000000000000000000000815260040161112c90612149565b60405180910390fd5b60008267ffffffffffffffff81111561115157611150611603565b5b60405190808252806020026020018201604052801561118a57816020015b61117761149e565b81526020019060019003908161116f5790505b50905060005b838110156113ce5760008185876111a79190611f2e565b6111b19190612169565b905060048054905081106111c557506113ce565b60046001826004805490506111da9190611fe8565b6111e49190611fe8565b815481106111f5576111f4611ed0565b5b90600052602060002090600502016040518060a001604052908160008201805461121e906120cb565b80601f016020809104026020016040519081016040528092919081815260200182805461124a906120cb565b80156112975780601f1061126c57610100808354040283529160200191611297565b820191906000526020600020905b81548152906001019060200180831161127a57829003601f168201915b5050505050815260200160018201548152602001600282015481526020016003820160009054906101000a900473ffffffffffffffffffffffffffffffffffffffff1673ffffffffffffffffffffffffffffffffffffffff1673ffffffffffffffffffffffffffffffffffffffff16815260200160048201805461131a906120cb565b80601f0160208091040260200160405190810160405280929190818152602001828054611346906120cb565b80156113935780601f1061136857610100808354040283529160200191611393565b820191906000526020600020905b81548152906001019060200180831161137657829003601f168201915b5050505050815250508383815181106113af576113ae611ed0565b5b60200260200101819052505080806113c69061201c565b915050611190565b508091505092915050565b600581815481106113e957600080fd5b906000526020600020016000915054906101000a900473ffffffffffffffffffffffffffffffffffffffff1681565b828054611424906120cb565b90600052602060002090601f016020900481019282611446576000855561148d565b82601f1061145f57805160ff191683800117855561148d565b8280016001018555821561148d579182015b8281111561148c578251825591602001919060010190611471565b5b50905061149a91906114e3565b5090565b6040518060a00160405280606081526020016000815260200160008152602001600073ffffffffffffffffffffffffffffffffffffffff168152602001606081525090565b5b808211156114fc5760008160009055506001016114e4565b5090565b6000604051905090565b600080fd5b600080fd5b6000819050919050565b61152781611514565b811461153257600080fd5b50565b6000813590506115448161151e565b92915050565b600073ffffffffffffffffffffffffffffffffffffffff82169050919050565b60006115758261154a565b9050919050565b6115858161156a565b811461159057600080fd5b50565b6000813590506115a28161157c565b92915050565b600080604083850312156115bf576115be61150a565b5b60006115cd85828601611535565b92505060206115de85828601611593565b9150509250929050565b600080fd5b600080fd5b6000601f19601f8301169050919050565b7f4e487b7100000000000000000000000000000000000000000000000000000000600052604160045260246000fd5b61163b826115f2565b810181811067ffffffffffffffff8211171561165a57611659611603565b5b80604052505050565b600061166d611500565b90506116798282611632565b919050565b600067ffffffffffffffff82111561169957611698611603565b5b6116a2826115f2565b9050602081019050919050565b82818337600083830152505050565b60006116d16116cc8461167e565b611663565b9050828152602081018484840111156116ed576116ec6115ed565b5b6116f88482856116af565b509392505050565b600082601f830112611715576117146115e8565b5b81356117258482602086016116be565b91505092915050565b6000806000606084860312156117475761174661150a565b5b600084013567ffffffffffffffff8111156117655761176461150f565b5b61177186828701611700565b935050602084013567ffffffffffffffff8111156117925761179161150f565b5b61179e86828701611700565b92505060406117af86828701611535565b9150509250925092565b6000602082840312156117cf576117ce61150a565b5b60006117dd84828501611535565b91505092915050565b600081519050919050565b600082825260208201905092915050565b60005b83811015611820578082015181840152602081019050611805565b8381111561182f576000848401525b50505050565b6000611840826117e6565b61184a81856117f1565b935061185a818560208601611802565b611863816115f2565b840191505092915050565b61187781611514565b82525050565b60006118888261154a565b9050919050565b6118988161187d565b82525050565b600060a08201905081810360008301526118b88188611835565b90506118c7602083018761186e565b6118d4604083018661186e565b6118e1606083018561188f565b81810360808301526118f38184611835565b90509695505050505050565b600081519050919050565b600082825260208201905092915050565b6000819050602082019050919050565b6119348161187d565b82525050565b6000611946838361192b565b60208301905092915050565b6000602082019050919050565b600061196a826118ff565b611974818561190a565b935061197f8361191b565b8060005b838110156119b0578151611997888261193a565b97506119a283611952565b925050600181019050611983565b5085935050505092915050565b600060208201905081810360008301526119d7818461195f565b905092915050565b600081519050919050565b600082825260208201905092915050565b6000819050602082019050919050565b600082825260208201905092915050565b6000611a27826117e6565b611a318185611a0b565b9350611a41818560208601611802565b611a4a816115f2565b840191505092915050565b611a5e81611514565b82525050565b600060a0830160008301518482036000860152611a818282611a1c565b9150506020830151611a966020860182611a55565b506040830151611aa96040860182611a55565b506060830151611abc606086018261192b565b5060808301518482036080860152611ad48282611a1c565b9150508091505092915050565b6000611aed8383611a64565b905092915050565b6000602082019050919050565b6000611b0d826119df565b611b1781856119ea565b935083602082028501611b29856119fb565b8060005b85811015611b655784840389528151611b468582611ae1565b9450611b5183611af5565b925060208a01995050600181019050611b2d565b50829750879550505050505092915050565b60006020820190508181036000830152611b918184611b02565b905092915050565b611ba28161187d565b8114611bad57600080fd5b50565b600081359050611bbf81611b99565b92915050565b600060208284031215611bdb57611bda61150a565b5b6000611be984828501611bb0565b91505092915050565b6000602082019050611c07600083018461186e565b92915050565b60008060408385031215611c2457611c2361150a565b5b6000611c3285828601611535565b9250506020611c4385828601611535565b9150509250929050565b6000602082019050611c62600083018461188f565b92915050565b7f546869732066756e6374696f6e206973207265737472696374656420746f207460008201527f686520636f6e74726163742773206f776e657200000000000000000000000000602082015250565b6000611cc46033836117f1565b9150611ccf82611c68565b604082019050919050565b60006020820190508181036000830152611cf381611cb7565b9050919050565b7f4f6e6c7920746865206f776e6572206f6620746869732077616c6c657420636160008201527f6e2077697468647261772e000000000000000000000000000000000000000000602082015250565b6000611d56602b836117f1565b9150611d6182611cfa565b604082019050919050565b60006020820190508181036000830152611d8581611d49565b9050919050565b7f4e6f7420656e6f7567682066756e64732e000000000000000000000000000000600082015250565b6000611dc26011836117f1565b9150611dcd82611d8c565b602082019050919050565b60006020820190508181036000830152611df181611db5565b9050919050565b7f42696420746f6f206c6f77000000000000000000000000000000000000000000600082015250565b6000611e2e600b836117f1565b9150611e3982611df8565b602082019050919050565b60006020820190508181036000830152611e5d81611e21565b9050919050565b7f4368617269747920646f6573206e6f7420657869737400000000000000000000600082015250565b6000611e9a6016836117f1565b9150611ea582611e64565b602082019050919050565b60006020820190508181036000830152611ec981611e8d565b9050919050565b7f4e487b7100000000000000000000000000000000000000000000000000000000600052603260045260246000fd5b7f4e487b7100000000000000000000000000000000000000000000000000000000600052601160045260246000fd5b6000611f3982611514565b9150611f4483611514565b9250817fffffffffffffffffffffffffffffffffffffffffffffffffffffffffffffffff0483118215151615611f7d57611f7c611eff565b5b828202905092915050565b7f4e487b7100000000000000000000000000000000000000000000000000000000600052601260045260246000fd5b6000611fc282611514565b9150611fcd83611514565b925082611fdd57611fdc611f88565b5b828204905092915050565b6000611ff382611514565b9150611ffe83611514565b92508282101561201157612010611eff565b5b828203905092915050565b600061202782611514565b91507fffffffffffffffffffffffffffffffffffffffffffffffffffffffffffffffff82141561205a57612059611eff565b5b600182019050919050565b600060608201905061207a600083018661188f565b612087602083018561186e565b612094604083018461186e565b949350505050565b7f4e487b7100000000000000000000000000000000000000000000000000000000600052602260045260246000fd5b600060028204905060018216806120e357607f821691505b602082108114156120f7576120f661209c565b5b50919050565b7f5061676520666f72206c656e67746820646f6573206e6f742065786973740000600082015250565b6000612133601e836117f1565b915061213e826120fd565b602082019050919050565b6000602082019050818103600083015261216281612126565b9050919050565b600061217482611514565b915061217f83611514565b9250827fffffffffffffffffffffffffffffffffffffffffffffffffffffffffffffffff038211156121b4576121b3611eff565b5b82820190509291505056fea264697066735822122042d8d7cf905227e1c84e0bbbb6f5ebdc4405cb735c25fa4eea3edaa14a05a7c864736f6c63430008090033",
  "immutableReferences": {},
  "source": "// SPDX-License-Identifier: MIT\npragma solidity > 0.8.7;\n\ncontract KingOfTheBlockchain {\n    struct KingMessage {\n        string message;\n        uint bid;\n        uint timestamp;\n        address bidder;\n        string uri;\n    }\n\n    address private owner;\n    uint public maxBid = 0;\n    uint private nextBidIndex = 0;\n    mapping (address => uint) public bidsIndex;\n    // mapping (uint => KingMessage) public bids;\n    // mapping (uint => address) public charities;\n    KingMessage[] public bids;\n    address[] public charities;\n\n    uint CHARITY_CUT = 51; // THis is percentage\n\n    event NewBid(address bidder, uint bid, uint timestamp);\n    event LogWithdrawal(uint amount, address indexed recipient);\n\n    modifier restricted() {\n        require(\n        msg.sender == owner,\n        \"This function is restricted to the contract's owner\"\n        );\n        _;\n    }\n\n    constructor () {\n        owner = msg.sender;\n    }\n\n    function addCharity(address charity) external restricted {\n        charities.push(charity);\n    }\n\n    function getCharities() external view returns (address[] memory) {\n        return charities;\n    }\n\n    // get bids with pagination\n    function getBids(uint page, uint length) external view returns (KingMessage[] memory) {\n        require(bids.length / length >= page, \"Page for length does not exist\");\n        KingMessage[] memory results = new KingMessage[](length);\n        for(uint i = 0; i < length; i++) {\n            uint index = page * length + i;\n            if(index >= bids.length)\n                break;\n            results[i] = bids[bids.length - index - 1];\n        }\n        return results;\n    }\n\n    function getTopBids() external view returns (KingMessage[] memory) {\n        uint len = bids.length;\n        KingMessage[] memory topBids = new KingMessage[](3);\n        if(len > 0) topBids[0] = bids[len - 1];\n        if (len > 1) topBids[1] = bids[len - 2];\n        if (len > 2) topBids[2] = bids[len - 3];\n        return topBids;\n    }\n\n    function makeBid(string memory message, string memory uri, uint charityId) public payable {\n        // require(msg.value >= msg.sender.balance, \"Sorry! You don't have enough ether to bid\");\n        require(msg.value > maxBid, \"Bid too low\");\n        require(charityId < charities.length, \"Charity does not exist\");\n        maxBid = msg.value;\n        KingMessage memory newBid = KingMessage(message, msg.value, block.timestamp, msg.sender, uri);\n        payable(charities[charityId]).transfer(msg.value * CHARITY_CUT / 100);\n        payable(owner).transfer(msg.value * (100 - CHARITY_CUT) / 100);\n        bids.push(newBid);\n        nextBidIndex++;\n        emit NewBid(msg.sender, msg.value, block.timestamp);\n    }\n\n    // Withrdraw money out of the contract just in case\n    function withdraw(uint amount, address payable recipient) external restricted {\n        require(msg.sender == owner, \"Only the owner of this wallet can withdraw.\");\n        require(address(this).balance >= amount, \"Not enough funds.\");\n        emit LogWithdrawal(amount, recipient);\n        recipient.transfer(amount);\n    }\n}\n",
  "sourcePath": "/Users/cuaras/workspace/blockchain/kingof/contracts/KingOfTheBlockchain.sol",
  "compiler": {
    "name": "solc",
    "version": "0.8.9+commit.e5eed63a.Emscripten.clang"
  },
  "schemaVersion": "3.4.3",
  "updatedAt": "2021-11-15T18:23:07.893Z",
  "networkType": "ethereum",
  "devdoc": {
    "kind": "dev",
    "methods": {},
    "version": 1
  },
  "userdoc": {
    "kind": "user",
    "methods": {},
    "version": 1
  }
}